{
  "contractName": "ERC721Enumerable",
  "abi": [
    {
      "inputs": [],
      "stateMutability": "nonpayable",
      "type": "constructor"
    },
    {
      "anonymous": false,
      "inputs": [
        {
          "indexed": true,
          "internalType": "address",
          "name": "_from",
          "type": "address"
        },
        {
          "indexed": true,
          "internalType": "address",
          "name": "_to",
          "type": "address"
        },
        {
          "indexed": true,
          "internalType": "uint256",
          "name": "_tokenId",
          "type": "uint256"
        }
      ],
      "name": "Transfer",
      "type": "event"
    },
    {
      "inputs": [
        {
          "internalType": "address",
          "name": "_owner",
          "type": "address"
        }
      ],
      "name": "balanceOf",
      "outputs": [
        {
          "internalType": "uint256",
          "name": "",
          "type": "uint256"
        }
      ],
      "stateMutability": "view",
      "type": "function"
    },
    {
      "inputs": [
        {
          "internalType": "uint256",
          "name": "_tokenId",
          "type": "uint256"
        }
      ],
      "name": "ownerOf",
      "outputs": [
        {
          "internalType": "address",
          "name": "",
          "type": "address"
        }
      ],
      "stateMutability": "view",
      "type": "function"
    },
    {
      "inputs": [
        {
          "internalType": "bytes4",
          "name": "interfaceID",
          "type": "bytes4"
        }
      ],
      "name": "supportsInterface",
      "outputs": [
        {
          "internalType": "bool",
          "name": "",
          "type": "bool"
        }
      ],
      "stateMutability": "view",
      "type": "function"
    },
    {
      "inputs": [
        {
          "internalType": "address",
          "name": "_from",
          "type": "address"
        },
        {
          "internalType": "address",
          "name": "_to",
          "type": "address"
        },
        {
          "internalType": "uint256",
          "name": "tokenId",
          "type": "uint256"
        }
      ],
      "name": "transferFrom",
      "outputs": [],
      "stateMutability": "nonpayable",
      "type": "function"
    },
    {
      "inputs": [],
      "name": "totalSupply",
      "outputs": [
        {
          "internalType": "uint256",
          "name": "",
          "type": "uint256"
        }
      ],
      "stateMutability": "view",
      "type": "function"
    },
    {
      "inputs": [
        {
          "internalType": "uint256",
          "name": "_index",
          "type": "uint256"
        }
      ],
      "name": "tokenByIndex",
      "outputs": [
        {
          "internalType": "uint256",
          "name": "",
          "type": "uint256"
        }
      ],
      "stateMutability": "view",
      "type": "function"
    },
    {
      "inputs": [
        {
          "internalType": "address",
          "name": "owner",
          "type": "address"
        },
        {
          "internalType": "uint256",
          "name": "index",
          "type": "uint256"
        }
      ],
      "name": "tokenOfOwnerByIndex",
      "outputs": [
        {
          "internalType": "uint256",
          "name": "",
          "type": "uint256"
        }
      ],
      "stateMutability": "view",
      "type": "function"
    }
  ],
  "bytecode": "0x608060405234801561001057600080fd5b506100407f01ffc9a7a5cef8baa21ed3c5c0d7e23accb804b619e9333b597f47a0d84076e261012b60201b60201c565b6100b37f22c82707ba960a14c7592ffb6b8cfaa073fed0048a84cc7fa41f6b5bd8e7f2e47f3a6eb71757dfc6e784c1459d26270140c2c147d95ca985c80026fc5301c3eca17f8a7e378434598edc36d108689a030cbc9d7d465de4f74c71bae1028eed6a881b181861012b60201b60201c565b6101267f8230223f691b981717299fae9549350a0d894555723531f02108b1f522c1a7977f6da5e1284143cdd2d15038a59bde3be031250f00291d64494c12d967b3a4e0c37fc53637662700e6c65104059db8bba34439e0c32483ab7c34e3ccae52c7395495181861012b60201b60201c565b61027d565b63ffffffff60e01b817bffffffffffffffffffffffffffffffffffffffffffffffffffffffff19161415610194576040517f08c379a000000000000000000000000000000000000000000000000000000000815260040161018b9061025d565b60405180910390fd5b6001600080837bffffffffffffffffffffffffffffffffffffffffffffffffffffffff19167bffffffffffffffffffffffffffffffffffffffffffffffffffffffff1916815260200190815260200160002060006101000a81548160ff02191690831515021790555050565b600082825260208201905092915050565b7f496e76616c696420696e74657266616365207265717565737400000000000000600082015250565b6000610247601983610200565b915061025282610211565b602082019050919050565b600060208201905081810360008301526102768161023a565b9050919050565b610e2c806200028d6000396000f3fe608060405234801561001057600080fd5b506004361061007d5760003560e01c80632f745c591161005b5780632f745c59146100ec5780634f6ccce71461011c5780636352211e1461014c57806370a082311461017c5761007d565b806301ffc9a71461008257806318160ddd146100b257806323b872dd146100d0575b600080fd5b61009c600480360381019061009791906108e0565b6101ac565b6040516100a99190610928565b60405180910390f35b6100ba610213565b6040516100c7919061095c565b60405180910390f35b6100ea60048036038101906100e59190610a01565b610220565b005b61010660048036038101906101019190610a54565b610230565b604051610113919061095c565b60405180910390f35b61013660048036038101906101319190610a94565b61034f565b604051610143919061095c565b60405180910390f35b61016660048036038101906101619190610a94565b6103c0565b6040516101739190610ad0565b60405180910390f35b61019660048036038101906101919190610aeb565b610472565b6040516101a3919061095c565b60405180910390f35b6000806000837bffffffffffffffffffffffffffffffffffffffffffffffffffffffff19167bffffffffffffffffffffffffffffffffffffffffffffffffffffffff1916815260200190815260200160002060009054906101000a900460ff169050919050565b6000600380549050905090565b61022b83838361052a565b505050565b60008073ffffffffffffffffffffffffffffffffffffffff168373ffffffffffffffffffffffffffffffffffffffff1614156102a1576040517f08c379a000000000000000000000000000000000000000000000000000000000815260040161029890610b75565b60405180910390fd5b6102aa83610472565b82106102eb576040517f08c379a00000000000000000000000000000000000000000000000000000000081526004016102e290610c07565b60405180910390fd5b600660008473ffffffffffffffffffffffffffffffffffffffff1673ffffffffffffffffffffffffffffffffffffffff168152602001908152602001600020828154811061033c5761033b610c27565b5b9060005260206000200154905092915050565b6000610359610213565b821061039a576040517f08c379a000000000000000000000000000000000000000000000000000000000815260040161039190610ca2565b60405180910390fd5b600382815481106103ae576103ad610c27565b5b90600052602060002001549050919050565b6000806001600084815260200190815260200160002060009054906101000a900473ffffffffffffffffffffffffffffffffffffffff169050600073ffffffffffffffffffffffffffffffffffffffff168173ffffffffffffffffffffffffffffffffffffffff161415610469576040517f08c379a000000000000000000000000000000000000000000000000000000000815260040161046090610b75565b60405180910390fd5b80915050919050565b60008073ffffffffffffffffffffffffffffffffffffffff168273ffffffffffffffffffffffffffffffffffffffff1614156104e3576040517f08c379a00000000000000000000000000000000000000000000000000000000081526004016104da90610b75565b60405180910390fd5b600260008373ffffffffffffffffffffffffffffffffffffffff1673ffffffffffffffffffffffffffffffffffffffff168152602001908152602001600020549050919050565b610535838383610544565b61053f81836107bf565b505050565b8273ffffffffffffffffffffffffffffffffffffffff16610564826103c0565b73ffffffffffffffffffffffffffffffffffffffff16146105ba576040517f08c379a00000000000000000000000000000000000000000000000000000000081526004016105b190610d34565b60405180910390fd5b600073ffffffffffffffffffffffffffffffffffffffff168273ffffffffffffffffffffffffffffffffffffffff16141580156106245750600073ffffffffffffffffffffffffffffffffffffffff168373ffffffffffffffffffffffffffffffffffffffff1614155b610663576040517f08c379a000000000000000000000000000000000000000000000000000000000815260040161065a90610b75565b60405180910390fd5b816001600083815260200190815260200160002060006101000a81548173ffffffffffffffffffffffffffffffffffffffff021916908373ffffffffffffffffffffffffffffffffffffffff160217905550600260008473ffffffffffffffffffffffffffffffffffffffff1673ffffffffffffffffffffffffffffffffffffffff168152602001908152602001600020600081548092919061070590610d83565b9190505550600260008373ffffffffffffffffffffffffffffffffffffffff1673ffffffffffffffffffffffffffffffffffffffff168152602001908152602001600020600081548092919061075a90610dad565b9190505550808273ffffffffffffffffffffffffffffffffffffffff168473ffffffffffffffffffffffffffffffffffffffff167fddf252ad1be2c89b69c2b068fc378daa952ba7f163c4a11628f55a4df523b3ef60405160405180910390a4505050565b600660008273ffffffffffffffffffffffffffffffffffffffff1673ffffffffffffffffffffffffffffffffffffffff168152602001908152602001600020829080600181540180825580915050600190039060005260206000200160009091909190915055600660008273ffffffffffffffffffffffffffffffffffffffff1673ffffffffffffffffffffffffffffffffffffffff1681526020019081526020016000208054905060076000848152602001908152602001600020819055505050565b600080fd5b60007fffffffff0000000000000000000000000000000000000000000000000000000082169050919050565b6108bd81610888565b81146108c857600080fd5b50565b6000813590506108da816108b4565b92915050565b6000602082840312156108f6576108f5610883565b5b6000610904848285016108cb565b91505092915050565b60008115159050919050565b6109228161090d565b82525050565b600060208201905061093d6000830184610919565b92915050565b6000819050919050565b61095681610943565b82525050565b6000602082019050610971600083018461094d565b92915050565b600073ffffffffffffffffffffffffffffffffffffffff82169050919050565b60006109a282610977565b9050919050565b6109b281610997565b81146109bd57600080fd5b50565b6000813590506109cf816109a9565b92915050565b6109de81610943565b81146109e957600080fd5b50565b6000813590506109fb816109d5565b92915050565b600080600060608486031215610a1a57610a19610883565b5b6000610a28868287016109c0565b9350506020610a39868287016109c0565b9250506040610a4a868287016109ec565b9150509250925092565b60008060408385031215610a6b57610a6a610883565b5b6000610a79858286016109c0565b9250506020610a8a858286016109ec565b9150509250929050565b600060208284031215610aaa57610aa9610883565b5b6000610ab8848285016109ec565b91505092915050565b610aca81610997565b82525050565b6000602082019050610ae56000830184610ac1565b92915050565b600060208284031215610b0157610b00610883565b5b6000610b0f848285016109c0565b91505092915050565b600082825260208201905092915050565b7f4572726f723a20496e76616c6964206164647265737300000000000000000000600082015250565b6000610b5f601683610b18565b9150610b6a82610b29565b602082019050919050565b60006020820190508181036000830152610b8e81610b52565b9050919050565b7f4572726f723a2054686174206164647265737320646f65736e7420686176652060008201527f7468697320746f6b656e00000000000000000000000000000000000000000000602082015250565b6000610bf1602a83610b18565b9150610bfc82610b95565b604082019050919050565b60006020820190508181036000830152610c2081610be4565b9050919050565b7f4e487b7100000000000000000000000000000000000000000000000000000000600052603260045260246000fd5b7f4572726f723a205468617420696e64657820646f65736e742065786973740000600082015250565b6000610c8c601e83610b18565b9150610c9782610c56565b602082019050919050565b60006020820190508181036000830152610cbb81610c7f565b9050919050565b7f4572726f723a2054686174206164647265737320646f65736e7420686176652060008201527f74686174204e4654000000000000000000000000000000000000000000000000602082015250565b6000610d1e602883610b18565b9150610d2982610cc2565b604082019050919050565b60006020820190508181036000830152610d4d81610d11565b9050919050565b7f4e487b7100000000000000000000000000000000000000000000000000000000600052601160045260246000fd5b6000610d8e82610943565b91506000821415610da257610da1610d54565b5b600182039050919050565b6000610db882610943565b91507fffffffffffffffffffffffffffffffffffffffffffffffffffffffffffffffff821415610deb57610dea610d54565b5b60018201905091905056fea2646970667358221220ba80e6883d47d8a4693f29b08e011bddf9b5483040148d47e46652aae253a24b64736f6c634300080b0033",
  "immutableReferences": {},
  "source": "// SPDX-License-Identifier: MIT\r\npragma solidity ^0.8.7;\r\n\r\nimport './ERC721.sol';\r\nimport './interfaces/IERC721Enumerable.sol';\r\n\r\ncontract ERC721Enumerable is ERC721, IERC721Enumerable{\r\n    uint256 [] private _allTokens;\r\n    uint256 [] private _ownerTokens;\r\n\r\n    mapping(uint256 => uint256) private _allTokensId;\r\n    mapping(address => uint256[]) private _ownedTokens;\r\n    mapping(uint256 => uint256) private _ownedTokensIndex;\r\n \r\n    constructor(){\r\n        _registerInterface(bytes4(keccak256('totalSupply(bytes4)')^\r\n        keccak256('tokenByIndex(bytes4)')^keccak256('tokenOfOwnerByIndex(bytes4)')));\r\n    }\r\n\r\n    //       \r\n    function totalSupply() public view override returns (uint256){\r\n        return _allTokens.length;\r\n    }\r\n\r\n    \r\n    function tokenByIndex(uint256 _index) public view override returns (uint256){\r\n        require(_index < totalSupply(), 'Error: That index doesnt exist');\r\n        return _allTokens[_index];\r\n    }\r\n\r\n    \r\n    //     \r\n    function tokenOfOwnerByIndex(address owner, uint256 index) external view override returns (uint256){\r\n        require(owner != address(0), 'Error: Invalid address');\r\n        require(index < balanceOf(owner), 'Error: That address doesnt have this token');\r\n        \r\n        return _ownedTokens[owner][index];\r\n    }\r\n\r\n    function _mint(address to, uint256 tokenId) internal override(ERC721){\r\n        super._mint(to, tokenId);\r\n\r\n        _addTokensToAllTokenEnumeration(tokenId);\r\n        _addTokensToOwnerEnumeration(tokenId, to);\r\n    }\r\n\r\n    function _transferFrom(address _from, address _to, uint256 _tokenId) internal override(ERC721) {\r\n        super._transferFrom(_from, _to, _tokenId);\r\n        _addTokensToOwnerEnumeration(_tokenId, _to);\r\n    }\r\n\r\n    function _addTokensToOwnerEnumeration(uint256 tokenId, address to) private{\r\n        _ownedTokens[to].push(tokenId);\r\n        _ownedTokensIndex[tokenId] = _ownedTokens[to].length;\r\n\r\n    }\r\n\r\n    function _addTokensToAllTokenEnumeration(uint256 tokenId) private{\r\n        _allTokensId[tokenId] = _allTokens.length;\r\n         _allTokens.push(tokenId);\r\n    }\r\n    \r\n}\r\n\r\n",
  "sourcePath": "C:\\Users\\root\\Desktop\\marketplace(demo)\\src\\contracts\\ERC721Enumerable.sol",
  "compiler": {
    "name": "solc",
    "version": "0.8.11+commit.d7f03943.Emscripten.clang"
  },
  "schemaVersion": "3.4.4",
  "updatedAt": "2022-02-05T18:36:21.971Z",
  "devdoc": {
    "kind": "dev",
    "methods": {},
    "version": 1
  },
  "userdoc": {
    "kind": "user",
    "methods": {},
    "version": 1
  }
}