{
  "contractName": "NFTMarketplace",
  "abi": [
    {
      "inputs": [],
      "stateMutability": "nonpayable",
      "type": "constructor"
    },
    {
      "anonymous": false,
      "inputs": [
        {
          "indexed": true,
          "internalType": "address",
          "name": "_from",
          "type": "address"
        },
        {
          "indexed": true,
          "internalType": "address",
          "name": "_to",
          "type": "address"
        },
        {
          "indexed": true,
          "internalType": "uint256",
          "name": "_tokenId",
          "type": "uint256"
        }
      ],
      "name": "Approval",
      "type": "event"
    },
    {
      "anonymous": false,
      "inputs": [
        {
          "indexed": true,
          "internalType": "address",
          "name": "_from",
          "type": "address"
        },
        {
          "indexed": true,
          "internalType": "address",
          "name": "_to",
          "type": "address"
        },
        {
          "indexed": true,
          "internalType": "bool",
          "name": "_approved",
          "type": "bool"
        }
      ],
      "name": "ApprovalForAll",
      "type": "event"
    },
    {
      "anonymous": false,
      "inputs": [
        {
          "indexed": false,
          "internalType": "address",
          "name": "winner",
          "type": "address"
        },
        {
          "indexed": false,
          "internalType": "uint256",
          "name": "amount",
          "type": "uint256"
        }
      ],
      "name": "AuctionEnded",
      "type": "event"
    },
    {
      "anonymous": false,
      "inputs": [
        {
          "indexed": false,
          "internalType": "address",
          "name": "seller",
          "type": "address"
        },
        {
          "indexed": false,
          "internalType": "uint256",
          "name": "tokenId",
          "type": "uint256"
        }
      ],
      "name": "AuctionStarted",
      "type": "event"
    },
    {
      "anonymous": false,
      "inputs": [
        {
          "indexed": false,
          "internalType": "address",
          "name": "owner",
          "type": "address"
        },
        {
          "indexed": false,
          "internalType": "uint256",
          "name": "fee",
          "type": "uint256"
        }
      ],
      "name": "FeeTransfered",
      "type": "event"
    },
    {
      "anonymous": false,
      "inputs": [
        {
          "indexed": false,
          "internalType": "address",
          "name": "bidder",
          "type": "address"
        },
        {
          "indexed": false,
          "internalType": "uint256",
          "name": "amount",
          "type": "uint256"
        }
      ],
      "name": "HighestBidIncrease",
      "type": "event"
    },
    {
      "anonymous": false,
      "inputs": [
        {
          "indexed": false,
          "internalType": "address",
          "name": "_seller",
          "type": "address"
        },
        {
          "indexed": false,
          "internalType": "address",
          "name": "_buyer",
          "type": "address"
        },
        {
          "indexed": false,
          "internalType": "uint256",
          "name": "_price",
          "type": "uint256"
        }
      ],
      "name": "NftBought",
      "type": "event"
    },
    {
      "anonymous": false,
      "inputs": [
        {
          "indexed": true,
          "internalType": "address",
          "name": "_from",
          "type": "address"
        },
        {
          "indexed": true,
          "internalType": "address",
          "name": "_to",
          "type": "address"
        },
        {
          "indexed": true,
          "internalType": "uint256",
          "name": "_tokenId",
          "type": "uint256"
        }
      ],
      "name": "Transfer",
      "type": "event"
    },
    {
      "inputs": [
        {
          "internalType": "address",
          "name": "to",
          "type": "address"
        },
        {
          "internalType": "uint256",
          "name": "tokenId",
          "type": "uint256"
        }
      ],
      "name": "approve",
      "outputs": [],
      "stateMutability": "nonpayable",
      "type": "function"
    },
    {
      "inputs": [
        {
          "internalType": "address",
          "name": "_owner",
          "type": "address"
        }
      ],
      "name": "balanceOf",
      "outputs": [
        {
          "internalType": "uint256",
          "name": "",
          "type": "uint256"
        }
      ],
      "stateMutability": "view",
      "type": "function",
      "constant": true
    },
    {
      "inputs": [
        {
          "internalType": "uint256",
          "name": "tokenId",
          "type": "uint256"
        }
      ],
      "name": "getApproved",
      "outputs": [
        {
          "internalType": "address",
          "name": "",
          "type": "address"
        }
      ],
      "stateMutability": "view",
      "type": "function",
      "constant": true
    },
    {
      "inputs": [
        {
          "internalType": "address",
          "name": "owner",
          "type": "address"
        },
        {
          "internalType": "address",
          "name": "operator",
          "type": "address"
        }
      ],
      "name": "isApprovedForAll",
      "outputs": [
        {
          "internalType": "bool",
          "name": "",
          "type": "bool"
        }
      ],
      "stateMutability": "view",
      "type": "function",
      "constant": true
    },
    {
      "inputs": [],
      "name": "name",
      "outputs": [
        {
          "internalType": "string",
          "name": "",
          "type": "string"
        }
      ],
      "stateMutability": "view",
      "type": "function",
      "constant": true
    },
    {
      "inputs": [
        {
          "internalType": "uint256",
          "name": "_tokenId",
          "type": "uint256"
        }
      ],
      "name": "ownerOf",
      "outputs": [
        {
          "internalType": "address",
          "name": "",
          "type": "address"
        }
      ],
      "stateMutability": "view",
      "type": "function",
      "constant": true
    },
    {
      "inputs": [
        {
          "internalType": "address",
          "name": "from",
          "type": "address"
        },
        {
          "internalType": "address",
          "name": "to",
          "type": "address"
        },
        {
          "internalType": "uint256",
          "name": "tokenId",
          "type": "uint256"
        }
      ],
      "name": "safeTransferFrom",
      "outputs": [],
      "stateMutability": "nonpayable",
      "type": "function"
    },
    {
      "inputs": [
        {
          "internalType": "address",
          "name": "from",
          "type": "address"
        },
        {
          "internalType": "address",
          "name": "to",
          "type": "address"
        },
        {
          "internalType": "uint256",
          "name": "tokenId",
          "type": "uint256"
        },
        {
          "internalType": "bytes",
          "name": "_data",
          "type": "bytes"
        }
      ],
      "name": "safeTransferFrom",
      "outputs": [],
      "stateMutability": "nonpayable",
      "type": "function"
    },
    {
      "inputs": [
        {
          "internalType": "address",
          "name": "operator",
          "type": "address"
        },
        {
          "internalType": "bool",
          "name": "approved",
          "type": "bool"
        }
      ],
      "name": "setApprovalForAll",
      "outputs": [],
      "stateMutability": "nonpayable",
      "type": "function"
    },
    {
      "inputs": [
        {
          "internalType": "bytes4",
          "name": "interfaceID",
          "type": "bytes4"
        }
      ],
      "name": "supportsInterface",
      "outputs": [
        {
          "internalType": "bool",
          "name": "",
          "type": "bool"
        }
      ],
      "stateMutability": "view",
      "type": "function",
      "constant": true
    },
    {
      "inputs": [],
      "name": "symbol",
      "outputs": [
        {
          "internalType": "string",
          "name": "",
          "type": "string"
        }
      ],
      "stateMutability": "view",
      "type": "function",
      "constant": true
    },
    {
      "inputs": [
        {
          "internalType": "uint256",
          "name": "_index",
          "type": "uint256"
        }
      ],
      "name": "tokenByIndex",
      "outputs": [
        {
          "internalType": "uint256",
          "name": "",
          "type": "uint256"
        }
      ],
      "stateMutability": "view",
      "type": "function",
      "constant": true
    },
    {
      "inputs": [
        {
          "internalType": "address",
          "name": "owner",
          "type": "address"
        },
        {
          "internalType": "uint256",
          "name": "index",
          "type": "uint256"
        }
      ],
      "name": "tokenOfOwnerByIndex",
      "outputs": [
        {
          "internalType": "uint256",
          "name": "",
          "type": "uint256"
        }
      ],
      "stateMutability": "view",
      "type": "function",
      "constant": true
    },
    {
      "inputs": [
        {
          "internalType": "uint256",
          "name": "",
          "type": "uint256"
        }
      ],
      "name": "tokens",
      "outputs": [
        {
          "internalType": "string",
          "name": "",
          "type": "string"
        }
      ],
      "stateMutability": "view",
      "type": "function",
      "constant": true
    },
    {
      "inputs": [],
      "name": "totalSupply",
      "outputs": [
        {
          "internalType": "uint256",
          "name": "",
          "type": "uint256"
        }
      ],
      "stateMutability": "view",
      "type": "function",
      "constant": true
    },
    {
      "inputs": [
        {
          "internalType": "address",
          "name": "_from",
          "type": "address"
        },
        {
          "internalType": "address",
          "name": "_to",
          "type": "address"
        },
        {
          "internalType": "uint256",
          "name": "tokenId",
          "type": "uint256"
        }
      ],
      "name": "transferFrom",
      "outputs": [],
      "stateMutability": "nonpayable",
      "type": "function"
    },
    {
      "inputs": [
        {
          "internalType": "string",
          "name": "_token",
          "type": "string"
        },
        {
          "internalType": "uint256",
          "name": "_price",
          "type": "uint256"
        }
      ],
      "name": "mint",
      "outputs": [
        {
          "internalType": "uint256",
          "name": "",
          "type": "uint256"
        }
      ],
      "stateMutability": "nonpayable",
      "type": "function"
    },
    {
      "inputs": [
        {
          "internalType": "string",
          "name": "_token",
          "type": "string"
        },
        {
          "internalType": "uint256",
          "name": "_min_bid",
          "type": "uint256"
        }
      ],
      "name": "mintAuction",
      "outputs": [
        {
          "internalType": "uint256",
          "name": "",
          "type": "uint256"
        }
      ],
      "stateMutability": "nonpayable",
      "type": "function"
    },
    {
      "inputs": [
        {
          "internalType": "uint256",
          "name": "_tokenId",
          "type": "uint256"
        }
      ],
      "name": "getPrice",
      "outputs": [
        {
          "internalType": "uint256",
          "name": "",
          "type": "uint256"
        }
      ],
      "stateMutability": "view",
      "type": "function",
      "constant": true
    },
    {
      "inputs": [
        {
          "internalType": "uint256",
          "name": "_tokenId",
          "type": "uint256"
        },
        {
          "internalType": "uint256",
          "name": "_price",
          "type": "uint256"
        }
      ],
      "name": "allowBuy",
      "outputs": [],
      "stateMutability": "nonpayable",
      "type": "function"
    },
    {
      "inputs": [
        {
          "internalType": "uint256",
          "name": "_tokenId",
          "type": "uint256"
        }
      ],
      "name": "buy",
      "outputs": [],
      "stateMutability": "payable",
      "type": "function",
      "payable": true
    },
    {
      "inputs": [
        {
          "internalType": "uint256",
          "name": "_tokenId",
          "type": "uint256"
        }
      ],
      "name": "bid",
      "outputs": [],
      "stateMutability": "payable",
      "type": "function",
      "payable": true
    },
    {
      "inputs": [
        {
          "internalType": "uint256",
          "name": "_tokenId",
          "type": "uint256"
        }
      ],
      "name": "auctionEnd",
      "outputs": [],
      "stateMutability": "nonpayable",
      "type": "function"
    }
  ],
  "bytecode": "0x60806040523480156200001157600080fd5b506040518060400160405280600e81526020017f4e46544d61726b6574706c6163650000000000000000000000000000000000008152506040518060400160405280600381526020017f4e465400000000000000000000000000000000000000000000000000000000008152508181620000b17f01ffc9a7a5cef8baa21ed3c5c0d7e23accb804b619e9333b597f47a0d84076e26200026b60201b60201c565b620001047f13b182f4c0e5b2efbac0efe6cf6d756c8b89f4b79c5707a043ed9ea740574ee97f7feaf19471f34a12a7eaf32d5f3090aa2260ea8624dc8a138e74e0bf0f623076186200026b60201b60201c565b81600190805190602001906200011c92919062000342565b5080600290805190602001906200013592919062000342565b505050620001ad7f22c82707ba960a14c7592ffb6b8cfaa073fed0048a84cc7fa41f6b5bd8e7f2e47f3a6eb71757dfc6e784c1459d26270140c2c147d95ca985c80026fc5301c3eca17f8a7e378434598edc36d108689a030cbc9d7d465de4f74c71bae1028eed6a881b18186200026b60201b60201c565b620002227f8230223f691b981717299fae9549350a0d894555723531f02108b1f522c1a7977f6da5e1284143cdd2d15038a59bde3be031250f00291d64494c12d967b3a4e0c37fc53637662700e6c65104059db8bba34439e0c32483ab7c34e3ccae52c739549518186200026b60201b60201c565b505033600e60006101000a81548173ffffffffffffffffffffffffffffffffffffffff021916908373ffffffffffffffffffffffffffffffffffffffff160217905550620004d9565b63ffffffff60e01b817bffffffffffffffffffffffffffffffffffffffffffffffffffffffff191603620002d6576040517f08c379a0000000000000000000000000000000000000000000000000000000008152600401620002cd9062000453565b60405180910390fd5b6001600080837bffffffffffffffffffffffffffffffffffffffffffffffffffffffff19167bffffffffffffffffffffffffffffffffffffffffffffffffffffffff1916815260200190815260200160002060006101000a81548160ff02191690831515021790555050565b8280546200035090620004a4565b90600052602060002090601f016020900481019282620003745760008555620003c0565b82601f106200038f57805160ff1916838001178555620003c0565b82800160010185558215620003c0579182015b82811115620003bf578251825591602001919060010190620003a2565b5b509050620003cf9190620003d3565b5090565b5b80821115620003ee576000816000905550600101620003d4565b5090565b600082825260208201905092915050565b7f496e76616c696420696e74657266616365207265717565737400000000000000600082015250565b60006200043b601983620003f2565b9150620004488262000403565b602082019050919050565b600060208201905081810360008301526200046e816200042c565b9050919050565b7f4e487b7100000000000000000000000000000000000000000000000000000000600052602260045260246000fd5b60006002820490506001821680620004bd57607f821691505b602082108103620004d357620004d262000475565b5b50919050565b61439c80620004e96000396000f3fe6080604052600436106101405760003560e01c80634f64b2be116100b6578063b88d4fde1161006f578063b88d4fde14610497578063bbb5e8d3146104c0578063c12cea0c146104e9578063d96a094a14610526578063e757223014610542578063e985e9c51461057f57610140565b80634f64b2be1461034f5780634f6ccce71461038c5780636352211e146103c957806370a082311461040657806395d89b4114610443578063a22cb4651461046e57610140565b806318160ddd1161010857806318160ddd1461025057806323b872dd1461027b5780632f745c59146102a457806332246e9f146102e157806342842e0e1461030a578063454a2ab31461033357610140565b806301ffc9a714610145578063056b01ce1461018257806306fdde03146101bf578063081812fc146101ea578063095ea7b314610227575b600080fd5b34801561015157600080fd5b5061016c60048036038101906101679190612be7565b6105bc565b6040516101799190612c2f565b60405180910390f35b34801561018e57600080fd5b506101a960048036038101906101a49190612dc6565b610623565b6040516101b69190612e31565b60405180910390f35b3480156101cb57600080fd5b506101d4610789565b6040516101e19190612ed4565b60405180910390f35b3480156101f657600080fd5b50610211600480360381019061020c9190612ef6565b61081b565b60405161021e9190612f64565b60405180910390f35b34801561023357600080fd5b5061024e60048036038101906102499190612fab565b6108a0565b005b34801561025c57600080fd5b506102656109a9565b6040516102729190612e31565b60405180910390f35b34801561028757600080fd5b506102a2600480360381019061029d9190612feb565b6109b6565b005b3480156102b057600080fd5b506102cb60048036038101906102c69190612fab565b6109c6565b6040516102d89190612e31565b60405180910390f35b3480156102ed57600080fd5b5061030860048036038101906103039190612ef6565b610ae4565b005b34801561031657600080fd5b50610331600480360381019061032c9190612feb565b610e27565b005b61034d60048036038101906103489190612ef6565b610e47565b005b34801561035b57600080fd5b5061037660048036038101906103719190612ef6565b61120d565b6040516103839190612ed4565b60405180910390f35b34801561039857600080fd5b506103b360048036038101906103ae9190612ef6565b6112b9565b6040516103c09190612e31565b60405180910390f35b3480156103d557600080fd5b506103f060048036038101906103eb9190612ef6565b61132a565b6040516103fd9190612f64565b60405180910390f35b34801561041257600080fd5b5061042d6004803603810190610428919061303e565b6113db565b60405161043a9190612e31565b60405180910390f35b34801561044f57600080fd5b50610458611492565b6040516104659190612ed4565b60405180910390f35b34801561047a57600080fd5b5061049560048036038101906104909190613097565b611524565b005b3480156104a357600080fd5b506104be60048036038101906104b99190613178565b611533565b005b3480156104cc57600080fd5b506104e760048036038101906104e291906131fb565b61158e565b005b3480156104f557600080fd5b50610510600480360381019061050b9190612dc6565b611663565b60405161051d9190612e31565b60405180910390f35b610540600480360381019061053b9190612ef6565b6117d2565b005b34801561054e57600080fd5b5061056960048036038101906105649190612ef6565b611a3b565b6040516105769190612e31565b60405180910390f35b34801561058b57600080fd5b506105a660048036038101906105a1919061323b565b611ac6565b6040516105b39190612c2f565b60405180910390f35b6000806000837bffffffffffffffffffffffffffffffffffffffffffffffffffffffff19167bffffffffffffffffffffffffffffffffffffffffffffffffffffffff1916815260200190815260200160002060009054906101000a900460ff169050919050565b600060118360405161063591906132b7565b908152602001604051809103902060009054906101000a900460ff1615610691576040517f08c379a000000000000000000000000000000000000000000000000000000000815260040161068890613340565b60405180910390fd5b600082116106d4576040517f08c379a00000000000000000000000000000000000000000000000000000000081526004016106cb906133ac565b60405180910390fd5b600c8390806001815401808255809150506001900390600052602060002001600090919091909150908051906020019061070f929190612ad8565b5060006001600c8054905061072491906133fb565b90506107303382611b5a565b600160118560405161074291906132b7565b908152602001604051809103902060006101000a81548160ff02191690831515021790555082600f6000838152602001908152602001600020819055508091505092915050565b6060600180546107989061345e565b80601f01602080910402602001604051908101604052809291908181526020018280546107c49061345e565b80156108115780601f106107e657610100808354040283529160200191610811565b820191906000526020600020905b8154815290600101906020018083116107f457829003601f168201915b5050505050905090565b600061082682611b7b565b610865576040517f08c379a000000000000000000000000000000000000000000000000000000000815260040161085c90613501565b60405180910390fd5b6005600083815260200190815260200160002060009054906101000a900473ffffffffffffffffffffffffffffffffffffffff169050919050565b60006108ab8261132a565b90508073ffffffffffffffffffffffffffffffffffffffff168373ffffffffffffffffffffffffffffffffffffffff160361091b576040517f08c379a000000000000000000000000000000000000000000000000000000000815260040161091290613593565b60405180910390fd5b8073ffffffffffffffffffffffffffffffffffffffff163373ffffffffffffffffffffffffffffffffffffffff16148061095b575061095a8133611ac6565b5b61099a576040517f08c379a000000000000000000000000000000000000000000000000000000000815260040161099190613625565b60405180910390fd5b6109a48383611bed565b505050565b6000600780549050905090565b6109c1838383611ca6565b505050565b60008073ffffffffffffffffffffffffffffffffffffffff168373ffffffffffffffffffffffffffffffffffffffff1603610a36576040517f08c379a0000000000000000000000000000000000000000000000000000000008152600401610a2d90613691565b60405180910390fd5b610a3f836113db565b8210610a80576040517f08c379a0000000000000000000000000000000000000000000000000000000008152600401610a7790613723565b60405180910390fd5b600a60008473ffffffffffffffffffffffffffffffffffffffff1673ffffffffffffffffffffffffffffffffffffffff1681526020019081526020016000208281548110610ad157610ad0613743565b5b9060005260206000200154905092915050565b600e60009054906101000a900473ffffffffffffffffffffffffffffffffffffffff1673ffffffffffffffffffffffffffffffffffffffff163373ffffffffffffffffffffffffffffffffffffffff1614610b74576040517f08c379a0000000000000000000000000000000000000000000000000000000008152600401610b6b906137e4565b60405180910390fd5b6000601060008381526020019081526020016000209050600073ffffffffffffffffffffffffffffffffffffffff168160010160009054906101000a900473ffffffffffffffffffffffffffffffffffffffff1673ffffffffffffffffffffffffffffffffffffffff1603610c1e576040517f08c379a0000000000000000000000000000000000000000000000000000000008152600401610c1590613850565b60405180910390fd5b8060030160009054906101000a900460ff1615610c70576040517f08c379a0000000000000000000000000000000000000000000000000000000008152600401610c67906138bc565b60405180910390fd5b60018160030160006101000a81548160ff02191690831515021790555060008160000160146101000a81548160ff0219169083151502179055507fdaec4582d5d9595688c8c98545fdd1c696d41c6aeaeb636737e84ed2f5c00eda8160010160009054906101000a900473ffffffffffffffffffffffffffffffffffffffff168260020154604051610d039291906138dc565b60405180910390a160008160000160009054906101000a900473ffffffffffffffffffffffffffffffffffffffff1690508073ffffffffffffffffffffffffffffffffffffffff166108fc83600201549081150290604051600060405180830381858888f19350505050158015610d7e573d6000803e3d6000fd5b5060008260040160008460010160009054906101000a900473ffffffffffffffffffffffffffffffffffffffff1673ffffffffffffffffffffffffffffffffffffffff1673ffffffffffffffffffffffffffffffffffffffff16815260200190815260200160002081905550610e19818360010160009054906101000a900473ffffffffffffffffffffffffffffffffffffffff1685611ca6565b610e2283611cc0565b505050565b610e4283838360405180602001604052806000815250611533565b505050565b6000601060008381526020019081526020016000209050610e678261132a565b73ffffffffffffffffffffffffffffffffffffffff163373ffffffffffffffffffffffffffffffffffffffff1603610ed4576040517f08c379a0000000000000000000000000000000000000000000000000000000008152600401610ecb90613951565b60405180910390fd5b8060000160149054906101000a900460ff16610f25576040517f08c379a0000000000000000000000000000000000000000000000000000000008152600401610f1c906139e3565b60405180910390fd5b60003411610f68576040517f08c379a0000000000000000000000000000000000000000000000000000000008152600401610f5f90613a4f565b60405180910390fd5b348160040160003373ffffffffffffffffffffffffffffffffffffffff1673ffffffffffffffffffffffffffffffffffffffff1681526020019081526020016000206000828254610fb99190613a6f565b9250508190555080600201548160040160003373ffffffffffffffffffffffffffffffffffffffff1673ffffffffffffffffffffffffffffffffffffffff1681526020019081526020016000205410156110a057348160040160003373ffffffffffffffffffffffffffffffffffffffff1673ffffffffffffffffffffffffffffffffffffffff168152602001908152602001600020600082825461105e91906133fb565b925050819055506040517f08c379a000000000000000000000000000000000000000000000000000000000815260040161109790613b37565b60405180910390fd5b338160010160006101000a81548173ffffffffffffffffffffffffffffffffffffffff021916908373ffffffffffffffffffffffffffffffffffffffff1602179055508060040160003373ffffffffffffffffffffffffffffffffffffffff1673ffffffffffffffffffffffffffffffffffffffff1681526020019081526020016000205481600201819055508060020154600f600084815260200190815260200160002081905550600d8160010160009054906101000a900473ffffffffffffffffffffffffffffffffffffffff169080600181540180825580915050600190039060005260206000200160009091909190916101000a81548173ffffffffffffffffffffffffffffffffffffffff021916908373ffffffffffffffffffffffffffffffffffffffff1602179055507fdfea07ab8527bd08519bfa633240757a7bb0a7f3c7adc98e30604ba73c70f42933346040516112019291906138dc565b60405180910390a15050565b600c818154811061121d57600080fd5b9060005260206000200160009150905080546112389061345e565b80601f01602080910402602001604051908101604052809291908181526020018280546112649061345e565b80156112b15780601f10611286576101008083540402835291602001916112b1565b820191906000526020600020905b81548152906001019060200180831161129457829003601f168201915b505050505081565b60006112c36109a9565b8210611304576040517f08c379a00000000000000000000000000000000000000000000000000000000081526004016112fb90613ba3565b60405180910390fd5b6007828154811061131857611317613743565b5b90600052602060002001549050919050565b6000806003600084815260200190815260200160002060009054906101000a900473ffffffffffffffffffffffffffffffffffffffff169050600073ffffffffffffffffffffffffffffffffffffffff168173ffffffffffffffffffffffffffffffffffffffff16036113d2576040517f08c379a00000000000000000000000000000000000000000000000000000000081526004016113c990613691565b60405180910390fd5b80915050919050565b60008073ffffffffffffffffffffffffffffffffffffffff168273ffffffffffffffffffffffffffffffffffffffff160361144b576040517f08c379a000000000000000000000000000000000000000000000000000000000815260040161144290613691565b60405180910390fd5b600460008373ffffffffffffffffffffffffffffffffffffffff1673ffffffffffffffffffffffffffffffffffffffff168152602001908152602001600020549050919050565b6060600280546114a19061345e565b80601f01602080910402602001604051908101604052809291908181526020018280546114cd9061345e565b801561151a5780601f106114ef5761010080835404028352916020019161151a565b820191906000526020600020905b8154815290600101906020018083116114fd57829003601f168201915b5050505050905090565b61152f338383611f62565b5050565b61153d33836120c6565b61157c576040517f08c379a000000000000000000000000000000000000000000000000000000000815260040161157390613c35565b60405180910390fd5b611588848484846121a4565b50505050565b6115978261132a565b73ffffffffffffffffffffffffffffffffffffffff163373ffffffffffffffffffffffffffffffffffffffff1614611604576040517f08c379a00000000000000000000000000000000000000000000000000000000081526004016115fb90613ca1565b60405180910390fd5b60008111611647576040517f08c379a000000000000000000000000000000000000000000000000000000000815260040161163e906133ac565b60405180910390fd5b80600f6000848152602001908152602001600020819055505050565b600060118360405161167591906132b7565b908152602001604051809103902060009054906101000a900460ff16156116d1576040517f08c379a00000000000000000000000000000000000000000000000000000000081526004016116c890613340565b60405180910390fd5b60008211611714576040517f08c379a000000000000000000000000000000000000000000000000000000000815260040161170b906133ac565b60405180910390fd5b600c8390806001815401808255809150506001900390600052602060002001600090919091909150908051906020019061174f929190612ad8565b5060006001600c8054905061176491906133fb565b90506117703382611b5a565b600160118560405161178291906132b7565b908152602001604051809103902060006101000a81548160ff02191690831515021790555082600f6000838152602001908152602001600020819055506117c881612200565b8091505092915050565b6000600f60008381526020019081526020016000205490506000811161182d576040517f08c379a000000000000000000000000000000000000000000000000000000000815260040161182490613d0d565b60405180910390fd5b6118368261132a565b73ffffffffffffffffffffffffffffffffffffffff163373ffffffffffffffffffffffffffffffffffffffff16036118a3576040517f08c379a000000000000000000000000000000000000000000000000000000000815260040161189a90613d79565b60405180910390fd5b600081346118b191906133fb565b905060006118be8461132a565b90506118cb813386611ca6565b6000600f6000868152602001908152602001600020819055508073ffffffffffffffffffffffffffffffffffffffff166108fc833461190a91906133fb565b9081150290604051600060405180830381858888f19350505050158015611935573d6000803e3d6000fd5b507f608f6ac9327c2bf4d3c77adf447d2c448ba7b0971e0aaa9aa03f7ac29d874a4481333460405161196993929190613d99565b60405180910390a1600e60009054906101000a900473ffffffffffffffffffffffffffffffffffffffff1673ffffffffffffffffffffffffffffffffffffffff166108fc839081150290604051600060405180830381858888f193505050501580156119d9573d6000803e3d6000fd5b507f2604fdad714a10fb8b95e0f03397e449f85ee9df88bd145ca531f15b8350fb57600e60009054906101000a900473ffffffffffffffffffffffffffffffffffffffff1634604051611a2d9291906138dc565b60405180910390a150505050565b6000611a4682611b7b565b611a85576040517f08c379a0000000000000000000000000000000000000000000000000000000008152600401611a7c90613e1c565b60405180910390fd5b6000600f6000848152602001908152602001600020541115611abc57600f6000838152602001908152602001600020549050611ac1565b600090505b919050565b6000600660008473ffffffffffffffffffffffffffffffffffffffff1673ffffffffffffffffffffffffffffffffffffffff16815260200190815260200160002060008373ffffffffffffffffffffffffffffffffffffffff1673ffffffffffffffffffffffffffffffffffffffff16815260200190815260200160002060009054906101000a900460ff16905092915050565b611b648282612419565b611b6d816125a2565b611b7781836125eb565b5050565b6000806003600084815260200190815260200160002060009054906101000a900473ffffffffffffffffffffffffffffffffffffffff169050600073ffffffffffffffffffffffffffffffffffffffff168173ffffffffffffffffffffffffffffffffffffffff161415915050919050565b816005600083815260200190815260200160002060006101000a81548173ffffffffffffffffffffffffffffffffffffffff021916908373ffffffffffffffffffffffffffffffffffffffff160217905550808273ffffffffffffffffffffffffffffffffffffffff16611c608361132a565b73ffffffffffffffffffffffffffffffffffffffff167f8c5be1e5ebec7d5bd14f71427d1e84f3dd0314c0f7b2291e5b200ac8c7c3b92560405160405180910390a45050565b611cb18383836126af565b611cbb81836125eb565b505050565b6000601060008381526020019081526020016000209050600080600090505b600d80549050816fffffffffffffffffffffffffffffffff161015611f5c57826004016000600d836fffffffffffffffffffffffffffffffff1681548110611d2a57611d29613743565b5b9060005260206000200160009054906101000a900473ffffffffffffffffffffffffffffffffffffffff1673ffffffffffffffffffffffffffffffffffffffff1673ffffffffffffffffffffffffffffffffffffffff1681526020019081526020016000205491506000836004016000600d846fffffffffffffffffffffffffffffffff1681548110611dc057611dbf613743565b5b9060005260206000200160009054906101000a900473ffffffffffffffffffffffffffffffffffffffff1673ffffffffffffffffffffffffffffffffffffffff1673ffffffffffffffffffffffffffffffffffffffff16815260200190815260200160002081905550600d816fffffffffffffffffffffffffffffffff1681548110611e4f57611e4e613743565b5b9060005260206000200160009054906101000a900473ffffffffffffffffffffffffffffffffffffffff1673ffffffffffffffffffffffffffffffffffffffff166108fc839081150290604051600060405180830381858888f19350505050611f495781836004016000600d846fffffffffffffffffffffffffffffffff1681548110611edf57611ede613743565b5b9060005260206000200160009054906101000a900473ffffffffffffffffffffffffffffffffffffffff1673ffffffffffffffffffffffffffffffffffffffff1673ffffffffffffffffffffffffffffffffffffffff168152602001908152602001600020819055505b8080611f5490613e58565b915050611cdf565b50505050565b8173ffffffffffffffffffffffffffffffffffffffff168373ffffffffffffffffffffffffffffffffffffffff1603611fd0576040517f08c379a0000000000000000000000000000000000000000000000000000000008152600401611fc790613edc565b60405180910390fd5b80600660008573ffffffffffffffffffffffffffffffffffffffff1673ffffffffffffffffffffffffffffffffffffffff16815260200190815260200160002060008473ffffffffffffffffffffffffffffffffffffffff1673ffffffffffffffffffffffffffffffffffffffff16815260200190815260200160002060006101000a81548160ff0219169083151502179055508015158273ffffffffffffffffffffffffffffffffffffffff168473ffffffffffffffffffffffffffffffffffffffff167f17307eab39ab6107e8899845ad3d59bd9653f200f220920489ca2b5937696c3160405160405180910390a4505050565b60006120d182611b7b565b612110576040517f08c379a000000000000000000000000000000000000000000000000000000000815260040161210790613f6e565b60405180910390fd5b600061211b8361132a565b90508073ffffffffffffffffffffffffffffffffffffffff168473ffffffffffffffffffffffffffffffffffffffff16148061218a57508373ffffffffffffffffffffffffffffffffffffffff166121728461081b565b73ffffffffffffffffffffffffffffffffffffffff16145b8061219b575061219a8185611ac6565b5b91505092915050565b6121af848484611ca6565b6121bb8484848461294b565b6121fa576040517f08c379a00000000000000000000000000000000000000000000000000000000081526004016121f190614000565b60405180910390fd5b50505050565b6122098161132a565b73ffffffffffffffffffffffffffffffffffffffff163373ffffffffffffffffffffffffffffffffffffffff1614612276576040517f08c379a000000000000000000000000000000000000000000000000000000000815260040161226d9061406c565b60405180910390fd5b60006010600083815260200190815260200160002090508060000160149054906101000a900460ff16156122df576040517f08c379a00000000000000000000000000000000000000000000000000000000081526004016122d6906140d8565b60405180910390fd5b60006122ea8361132a565b9050808260000160006101000a81548173ffffffffffffffffffffffffffffffffffffffff021916908373ffffffffffffffffffffffffffffffffffffffff16021790555060008260010160006101000a81548173ffffffffffffffffffffffffffffffffffffffff021916908373ffffffffffffffffffffffffffffffffffffffff1602179055506000826002018190555060018260000160146101000a81548160ff02191690831515021790555060008260030160006101000a81548160ff0219169083151502179055507fc087c4cdb16906b5ff7016a6bf927618f24ff32eb1de5e86eeaeb08b94831a688260000160009054906101000a900473ffffffffffffffffffffffffffffffffffffffff168460405161240c929190614157565b60405180910390a1505050565b600073ffffffffffffffffffffffffffffffffffffffff168273ffffffffffffffffffffffffffffffffffffffff1611612488576040517f08c379a000000000000000000000000000000000000000000000000000000000815260040161247f90613691565b60405180910390fd5b61249181611b7b565b1561249b57600080fd5b816003600083815260200190815260200160002060006101000a81548173ffffffffffffffffffffffffffffffffffffffff021916908373ffffffffffffffffffffffffffffffffffffffff160217905550600460008373ffffffffffffffffffffffffffffffffffffffff1673ffffffffffffffffffffffffffffffffffffffff168152602001908152602001600020600081548092919061253d90614180565b9190505550808273ffffffffffffffffffffffffffffffffffffffff16600073ffffffffffffffffffffffffffffffffffffffff167fddf252ad1be2c89b69c2b068fc378daa952ba7f163c4a11628f55a4df523b3ef60405160405180910390a45050565b6007805490506009600083815260200190815260200160002081905550600781908060018154018082558091505060019003906000526020600020016000909190919091505550565b600a60008273ffffffffffffffffffffffffffffffffffffffff1673ffffffffffffffffffffffffffffffffffffffff168152602001908152602001600020829080600181540180825580915050600190039060005260206000200160009091909190915055600a60008273ffffffffffffffffffffffffffffffffffffffff1673ffffffffffffffffffffffffffffffffffffffff16815260200190815260200160002080549050600b6000848152602001908152602001600020819055505050565b8273ffffffffffffffffffffffffffffffffffffffff166126cf8261132a565b73ffffffffffffffffffffffffffffffffffffffff1614612725576040517f08c379a000000000000000000000000000000000000000000000000000000000815260040161271c9061423a565b60405180910390fd5b600073ffffffffffffffffffffffffffffffffffffffff168273ffffffffffffffffffffffffffffffffffffffff161415801561278f5750600073ffffffffffffffffffffffffffffffffffffffff168373ffffffffffffffffffffffffffffffffffffffff1614155b6127ce576040517f08c379a00000000000000000000000000000000000000000000000000000000081526004016127c590613691565b60405180910390fd5b6127d9838383612ab5565b6127e4600082611bed565b816003600083815260200190815260200160002060006101000a81548173ffffffffffffffffffffffffffffffffffffffff021916908373ffffffffffffffffffffffffffffffffffffffff160217905550600460008473ffffffffffffffffffffffffffffffffffffffff1673ffffffffffffffffffffffffffffffffffffffff16815260200190815260200160002060008154809291906128869061425a565b9190505550600460008373ffffffffffffffffffffffffffffffffffffffff1673ffffffffffffffffffffffffffffffffffffffff16815260200190815260200160002060008154809291906128db90614180565b9190505550808273ffffffffffffffffffffffffffffffffffffffff168473ffffffffffffffffffffffffffffffffffffffff167fddf252ad1be2c89b69c2b068fc378daa952ba7f163c4a11628f55a4df523b3ef60405160405180910390a4612946838383612aba565b505050565b600061295684612abf565b15612aa8578373ffffffffffffffffffffffffffffffffffffffff1663150b7a02338786866040518563ffffffff1660e01b815260040161299a94939291906142d8565b6020604051808303816000875af19250505080156129d657506040513d601f19601f820116820180604052508101906129d39190614339565b60015b612a58573d8060008114612a06576040519150601f19603f3d011682016040523d82523d6000602084013e612a0b565b606091505b506000815103612a50576040517f08c379a0000000000000000000000000000000000000000000000000000000008152600401612a4790614000565b60405180910390fd5b805181602001fd5b63150b7a0260e01b7bffffffffffffffffffffffffffffffffffffffffffffffffffffffff1916817bffffffffffffffffffffffffffffffffffffffffffffffffffffffff191614915050612aad565b600190505b949350505050565b505050565b505050565b600080823b905060008163ffffffff1611915050919050565b828054612ae49061345e565b90600052602060002090601f016020900481019282612b065760008555612b4d565b82601f10612b1f57805160ff1916838001178555612b4d565b82800160010185558215612b4d579182015b82811115612b4c578251825591602001919060010190612b31565b5b509050612b5a9190612b5e565b5090565b5b80821115612b77576000816000905550600101612b5f565b5090565b6000604051905090565b600080fd5b600080fd5b60007fffffffff0000000000000000000000000000000000000000000000000000000082169050919050565b612bc481612b8f565b8114612bcf57600080fd5b50565b600081359050612be181612bbb565b92915050565b600060208284031215612bfd57612bfc612b85565b5b6000612c0b84828501612bd2565b91505092915050565b60008115159050919050565b612c2981612c14565b82525050565b6000602082019050612c446000830184612c20565b92915050565b600080fd5b600080fd5b6000601f19601f8301169050919050565b7f4e487b7100000000000000000000000000000000000000000000000000000000600052604160045260246000fd5b612c9d82612c54565b810181811067ffffffffffffffff82111715612cbc57612cbb612c65565b5b80604052505050565b6000612ccf612b7b565b9050612cdb8282612c94565b919050565b600067ffffffffffffffff821115612cfb57612cfa612c65565b5b612d0482612c54565b9050602081019050919050565b82818337600083830152505050565b6000612d33612d2e84612ce0565b612cc5565b905082815260208101848484011115612d4f57612d4e612c4f565b5b612d5a848285612d11565b509392505050565b600082601f830112612d7757612d76612c4a565b5b8135612d87848260208601612d20565b91505092915050565b6000819050919050565b612da381612d90565b8114612dae57600080fd5b50565b600081359050612dc081612d9a565b92915050565b60008060408385031215612ddd57612ddc612b85565b5b600083013567ffffffffffffffff811115612dfb57612dfa612b8a565b5b612e0785828601612d62565b9250506020612e1885828601612db1565b9150509250929050565b612e2b81612d90565b82525050565b6000602082019050612e466000830184612e22565b92915050565b600081519050919050565b600082825260208201905092915050565b60005b83811015612e86578082015181840152602081019050612e6b565b83811115612e95576000848401525b50505050565b6000612ea682612e4c565b612eb08185612e57565b9350612ec0818560208601612e68565b612ec981612c54565b840191505092915050565b60006020820190508181036000830152612eee8184612e9b565b905092915050565b600060208284031215612f0c57612f0b612b85565b5b6000612f1a84828501612db1565b91505092915050565b600073ffffffffffffffffffffffffffffffffffffffff82169050919050565b6000612f4e82612f23565b9050919050565b612f5e81612f43565b82525050565b6000602082019050612f796000830184612f55565b92915050565b612f8881612f43565b8114612f9357600080fd5b50565b600081359050612fa581612f7f565b92915050565b60008060408385031215612fc257612fc1612b85565b5b6000612fd085828601612f96565b9250506020612fe185828601612db1565b9150509250929050565b60008060006060848603121561300457613003612b85565b5b600061301286828701612f96565b935050602061302386828701612f96565b925050604061303486828701612db1565b9150509250925092565b60006020828403121561305457613053612b85565b5b600061306284828501612f96565b91505092915050565b61307481612c14565b811461307f57600080fd5b50565b6000813590506130918161306b565b92915050565b600080604083850312156130ae576130ad612b85565b5b60006130bc85828601612f96565b92505060206130cd85828601613082565b9150509250929050565b600067ffffffffffffffff8211156130f2576130f1612c65565b5b6130fb82612c54565b9050602081019050919050565b600061311b613116846130d7565b612cc5565b90508281526020810184848401111561313757613136612c4f565b5b613142848285612d11565b509392505050565b600082601f83011261315f5761315e612c4a565b5b813561316f848260208601613108565b91505092915050565b6000806000806080858703121561319257613191612b85565b5b60006131a087828801612f96565b94505060206131b187828801612f96565b93505060406131c287828801612db1565b925050606085013567ffffffffffffffff8111156131e3576131e2612b8a565b5b6131ef8782880161314a565b91505092959194509250565b6000806040838503121561321257613211612b85565b5b600061322085828601612db1565b925050602061323185828601612db1565b9150509250929050565b6000806040838503121561325257613251612b85565b5b600061326085828601612f96565b925050602061327185828601612f96565b9150509250929050565b600081905092915050565b600061329182612e4c565b61329b818561327b565b93506132ab818560208601612e68565b80840191505092915050565b60006132c38284613286565b915081905092915050565b7f4572726f723a205468617420746f6b656e20616c72656164792065786973747360008201527f2100000000000000000000000000000000000000000000000000000000000000602082015250565b600061332a602183612e57565b9150613335826132ce565b604082019050919050565b600060208201905081810360008301526133598161331d565b9050919050565b7f5072696365207a65726f00000000000000000000000000000000000000000000600082015250565b6000613396600a83612e57565b91506133a182613360565b602082019050919050565b600060208201905081810360008301526133c581613389565b9050919050565b7f4e487b7100000000000000000000000000000000000000000000000000000000600052601160045260246000fd5b600061340682612d90565b915061341183612d90565b925082821015613424576134236133cc565b5b828203905092915050565b7f4e487b7100000000000000000000000000000000000000000000000000000000600052602260045260246000fd5b6000600282049050600182168061347657607f821691505b6020821081036134895761348861342f565b5b50919050565b7f4552433732313a20617070726f76656420717565727920666f72206e6f6e657860008201527f697374656e7420746f6b656e0000000000000000000000000000000000000000602082015250565b60006134eb602c83612e57565b91506134f68261348f565b604082019050919050565b6000602082019050818103600083015261351a816134de565b9050919050565b7f4552433732313a20617070726f76616c20746f2063757272656e74206f776e6560008201527f7200000000000000000000000000000000000000000000000000000000000000602082015250565b600061357d602183612e57565b915061358882613521565b604082019050919050565b600060208201905081810360008301526135ac81613570565b9050919050565b7f4552433732313a20617070726f76652063616c6c6572206973206e6f74206f7760008201527f6e6572206e6f7220617070726f76656420666f7220616c6c0000000000000000602082015250565b600061360f603883612e57565b915061361a826135b3565b604082019050919050565b6000602082019050818103600083015261363e81613602565b9050919050565b7f4572726f723a20496e76616c6964206164647265737300000000000000000000600082015250565b600061367b601683612e57565b915061368682613645565b602082019050919050565b600060208201905081810360008301526136aa8161366e565b9050919050565b7f4572726f723a2054686174206164647265737320646f65736e7420686176652060008201527f7468697320746f6b656e00000000000000000000000000000000000000000000602082015250565b600061370d602a83612e57565b9150613718826136b1565b604082019050919050565b6000602082019050818103600083015261373c81613700565b9050919050565b7f4e487b7100000000000000000000000000000000000000000000000000000000600052603260045260246000fd5b7f4f6e6c79206d61726b6574706c616365206f776e65722063616e20636c6f736560008201527f2061756374696f6e210000000000000000000000000000000000000000000000602082015250565b60006137ce602983612e57565b91506137d982613772565b604082019050919050565b600060208201905081810360008301526137fd816137c1565b9050919050565b7f41756374696f6e20656e64656420776974686f757420616e7920626964000000600082015250565b600061383a601d83612e57565b915061384582613804565b602082019050919050565b600060208201905081810360008301526138698161382d565b9050919050565b7f5468652061756374696f6e2068617320616c726561647920656e646564000000600082015250565b60006138a6601d83612e57565b91506138b182613870565b602082019050919050565b600060208201905081810360008301526138d581613899565b9050919050565b60006040820190506138f16000830185612f55565b6138fe6020830184612e22565b9392505050565b7f596f752063616e6e6f7420626964206f6e20796f75722070726f647563740000600082015250565b600061393b601e83612e57565b915061394682613905565b602082019050919050565b6000602082019050818103600083015261396a8161392e565b9050919050565b7f5468697320746f6b656e206973206e6f7420757020666f722061756374696f6e60008201527f2000000000000000000000000000000000000000000000000000000000000000602082015250565b60006139cd602183612e57565b91506139d882613971565b604082019050919050565b600060208201905081810360008301526139fc816139c0565b9050919050565b7f546865206269642063616e6e6f74206265207a65726f00000000000000000000600082015250565b6000613a39601683612e57565b9150613a4482613a03565b602082019050919050565b60006020820190508181036000830152613a6881613a2c565b9050919050565b6000613a7a82612d90565b9150613a8583612d90565b9250827fffffffffffffffffffffffffffffffffffffffffffffffffffffffffffffffff03821115613aba57613ab96133cc565b5b828201905092915050565b7f546865726520697320616c7265616479206120686967686572206f722065717560008201527f616c206269642100000000000000000000000000000000000000000000000000602082015250565b6000613b21602783612e57565b9150613b2c82613ac5565b604082019050919050565b60006020820190508181036000830152613b5081613b14565b9050919050565b7f4572726f723a205468617420696e64657820646f65736e742065786973740000600082015250565b6000613b8d601e83612e57565b9150613b9882613b57565b602082019050919050565b60006020820190508181036000830152613bbc81613b80565b9050919050565b7f4552433732313a207472616e736665722063616c6c6572206973206e6f74206f60008201527f776e6572206e6f7220617070726f766564000000000000000000000000000000602082015250565b6000613c1f603183612e57565b9150613c2a82613bc3565b604082019050919050565b60006020820190508181036000830152613c4e81613c12565b9050919050565b7f4e6f74206f776e6572206f66207468697320746f6b656e000000000000000000600082015250565b6000613c8b601783612e57565b9150613c9682613c55565b602082019050919050565b60006020820190508181036000830152613cba81613c7e565b9050919050565b7f5468697320746f6b656e206973206e6f7420666f722073616c65000000000000600082015250565b6000613cf7601a83612e57565b9150613d0282613cc1565b602082019050919050565b60006020820190508181036000830152613d2681613cea565b9050919050565b7f596f752063616e27742062757920796f757220746f6b656e0000000000000000600082015250565b6000613d63601883612e57565b9150613d6e82613d2d565b602082019050919050565b60006020820190508181036000830152613d9281613d56565b9050919050565b6000606082019050613dae6000830186612f55565b613dbb6020830185612f55565b613dc86040830184612e22565b949350505050565b7f4572726f723a205468617420746f6b656e20646f65736e277420657869737421600082015250565b6000613e06602083612e57565b9150613e1182613dd0565b602082019050919050565b60006020820190508181036000830152613e3581613df9565b9050919050565b60006fffffffffffffffffffffffffffffffff82169050919050565b6000613e6382613e3c565b91506fffffffffffffffffffffffffffffffff8203613e8557613e846133cc565b5b600182019050919050565b7f4552433732313a20617070726f766520746f2063616c6c657200000000000000600082015250565b6000613ec6601983612e57565b9150613ed182613e90565b602082019050919050565b60006020820190508181036000830152613ef581613eb9565b9050919050565b7f4552433732313a206f70657261746f7220717565727920666f72206e6f6e657860008201527f697374656e7420746f6b656e0000000000000000000000000000000000000000602082015250565b6000613f58602c83612e57565b9150613f6382613efc565b604082019050919050565b60006020820190508181036000830152613f8781613f4b565b9050919050565b7f4552433732313a207472616e7366657220746f206e6f6e20455243373231526560008201527f63656976657220696d706c656d656e7465720000000000000000000000000000602082015250565b6000613fea603283612e57565b9150613ff582613f8e565b604082019050919050565b6000602082019050818103600083015261401981613fdd565b9050919050565b7f596f7520617265206e6f74206f776e6572206f66207468697320746f6b656e21600082015250565b6000614056602083612e57565b915061406182614020565b602082019050919050565b6000602082019050818103600083015261408581614049565b9050919050565b7f5468617420746f6b656e20616c7265616479206f6e2061756374696f6e000000600082015250565b60006140c2601d83612e57565b91506140cd8261408c565b602082019050919050565b600060208201905081810360008301526140f1816140b5565b9050919050565b6000819050919050565b600061411d61411861411384612f23565b6140f8565b612f23565b9050919050565b600061412f82614102565b9050919050565b600061414182614124565b9050919050565b61415181614136565b82525050565b600060408201905061416c6000830185614148565b6141796020830184612e22565b9392505050565b600061418b82612d90565b91507fffffffffffffffffffffffffffffffffffffffffffffffffffffffffffffffff82036141bd576141bc6133cc565b5b600182019050919050565b7f4572726f723a2054686174206164647265737320646f65736e7420686176652060008201527f74686174204e4654000000000000000000000000000000000000000000000000602082015250565b6000614224602883612e57565b915061422f826141c8565b604082019050919050565b6000602082019050818103600083015261425381614217565b9050919050565b600061426582612d90565b915060008203614278576142776133cc565b5b600182039050919050565b600081519050919050565b600082825260208201905092915050565b60006142aa82614283565b6142b4818561428e565b93506142c4818560208601612e68565b6142cd81612c54565b840191505092915050565b60006080820190506142ed6000830187612f55565b6142fa6020830186612f55565b6143076040830185612e22565b8181036060830152614319818461429f565b905095945050505050565b60008151905061433381612bbb565b92915050565b60006020828403121561434f5761434e612b85565b5b600061435d84828501614324565b9150509291505056fea2646970667358221220877f9c1612b6e4ffbb90245d1039275067b68a40558e0006a40914074dc497fb64736f6c634300080d0033",
  "immutableReferences": {},
  "source": "// SPDX-License-Identifier: MIT\r\npragma solidity ^0.8.7;\r\n\r\nimport './ERC721Connector.sol';\r\n\r\ncontract NFTMarketplace is ERC721Connector {\r\n    string [] public tokens;\r\n    address [] bidders;\r\n    address owner;\r\n\r\n    event NftBought(address _seller, address _buyer, uint256 _price);\r\n    event FeeTransfered(address owner, uint256 fee);\r\n    event AuctionStarted(address seller, uint256 tokenId);\r\n    event HighestBidIncrease(address bidder, uint256 amount);\r\n    event AuctionEnded(address winner, uint256 amount);\r\n\r\n    struct Auction {\r\n        address payable auctionSeller;\r\n\r\n        bool onAuction;\r\n\r\n        address highestBidder;\r\n\r\n        uint256 highestBid;\r\n\r\n        bool ended;\r\n\r\n        mapping(address => uint256) bids;\r\n    }\r\n\r\n    mapping(uint256 => uint256) tokenIdToPrice;\r\n    mapping(uint256 => Auction) tokenIdToAuction;\r\n    mapping(string => bool)  tokensExist;\r\n\r\n    constructor() ERC721Connector( 'NFTMarketplace', 'NFT'){\r\n        owner = msg.sender;\r\n    }\r\n\r\n    //    NFT (      )\r\n    function mint(string memory _token, uint256 _price) public returns(uint256){\r\n        require(! tokensExist[_token], 'Error: That token already exists!');\r\n        require(_price > 0, 'Price zero');\r\n        tokens.push(_token);\r\n        uint256 _id = tokens.length - 1;\r\n        _mint(msg.sender, _id);\r\n        tokensExist[_token] = true;\r\n        tokenIdToPrice[_id] = _price;\r\n        return _id;\r\n    }\r\n\r\n    function mintAuction(string memory _token, uint256 _min_bid) public returns(uint256){\r\n        require(! tokensExist[_token], \"Error: That token already exists!\");\r\n        require(_min_bid > 0, \"Price zero\");\r\n        tokens.push(_token);\r\n        uint256 _id = tokens.length - 1;\r\n        _mint(msg.sender, _id);\r\n        tokensExist[_token] = true;\r\n        tokenIdToPrice[_id] = _min_bid;\r\n\r\n        startAuction(_id);\r\n        return _id;\r\n    }\r\n\r\n\r\n    function getPrice(uint256 _tokenId) external view returns(uint256){\r\n        require(_exists(_tokenId), \"Error: That token doesn't exist!\");\r\n        if(tokenIdToPrice[_tokenId] > 0){\r\n        return tokenIdToPrice[_tokenId];\r\n        }else{\r\n            return 0;\r\n        }\r\n    }\r\n\r\n    function allowBuy(uint256 _tokenId, uint256 _price) external {\r\n        require(msg.sender == ownerOf(_tokenId), 'Not owner of this token');\r\n        require(_price > 0, 'Price zero');\r\n        tokenIdToPrice[_tokenId] = _price;\r\n    }\r\n\r\n    function buy(uint256 _tokenId) external payable {\r\n        uint256 price = tokenIdToPrice[_tokenId];\r\n\r\n        require(price > 0, \"This token is not for sale\");\r\n        require(msg.sender != ownerOf(_tokenId), \"You can't buy your token\");\r\n\r\n        uint256 fee = msg.value - price;\r\n        address seller = ownerOf(_tokenId);\r\n        _transfer(seller, msg.sender, _tokenId);\r\n        tokenIdToPrice[_tokenId] = 0; \r\n        payable(seller).transfer(msg.value - fee);\r\n        emit NftBought(seller, msg.sender, msg.value);\r\n        payable(owner).transfer(fee);\r\n        emit FeeTransfered(owner, msg.value);       \r\n    }\r\n\r\n    function startAuction(uint256 _tokenId) internal {\r\n        require(msg.sender == ownerOf(_tokenId), \"You are not owner of this token!\");\r\n    \r\n        Auction storage auction = tokenIdToAuction[_tokenId];\r\n        require(!auction.onAuction, \"That token already on auction\");\r\n        \r\n        address seller = ownerOf(_tokenId);\r\n        \r\n        auction.auctionSeller = payable(seller);\r\n        auction.highestBidder = address(0);\r\n        auction.highestBid =  0;\r\n        auction.onAuction = true;\r\n        auction.ended = false;\r\n\r\n        emit AuctionStarted(auction.auctionSeller, _tokenId);\r\n    }\r\n\r\n    function bid(uint256 _tokenId) external payable{\r\n        Auction storage auction = tokenIdToAuction[_tokenId];\r\n\r\n        require(msg.sender != ownerOf(_tokenId), \"You cannot bid on your product\");\r\n        require(auction.onAuction, \"This token is not up for auction \");\r\n        require(msg.value > 0, \"The bid cannot be zero\");\r\n\r\n        auction.bids[msg.sender] += msg.value;\r\n        if(auction.bids[msg.sender] < auction.highestBid){\r\n            auction.bids[msg.sender] -= msg.value;\r\n            revert(\"There is already a higher or equal bid!\");\r\n        }\r\n        \r\n        auction.highestBidder = msg.sender;\r\n        auction.highestBid = auction.bids[msg.sender];\r\n        tokenIdToPrice[_tokenId] = auction.highestBid;\r\n\r\n        bidders.push(auction.highestBidder);\r\n        emit HighestBidIncrease(msg.sender, msg.value);\r\n    }\r\n\r\n    function withdraw(uint256 _tokenId) internal{\r\n        Auction storage auction = tokenIdToAuction[_tokenId];\r\n        uint256 amount;\r\n\r\n        for(uint128 i = 0; i < bidders.length; i++){\r\n            amount = auction.bids[bidders[i]];\r\n            auction.bids[bidders[i]] = 0;\r\n                if(!payable(bidders[i]).send(amount)){\r\n                    auction.bids[bidders[i]] = amount;\r\n                }\r\n        }\r\n    }\r\n\r\n    function auctionEnd(uint256 _tokenId) external {\r\n        require(msg.sender == owner, \"Only marketplace owner can close auction!\");\r\n        Auction storage auction = tokenIdToAuction[_tokenId]; \r\n\r\n        if(auction.highestBidder == address(0)){\r\n            revert(\"Auction ended without any bid\");\r\n        }\r\n\r\n        if(auction.ended){\r\n            revert(\"The auction has already ended\");\r\n        }\r\n\r\n        auction.ended = true;\r\n        auction.onAuction = false;\r\n        emit AuctionEnded(auction.highestBidder, auction.highestBid);\r\n        address payable seller = auction.auctionSeller;\r\n        seller.transfer(auction.highestBid);\r\n        auction.bids[auction.highestBidder] = 0;\r\n        _transfer(seller, auction.highestBidder, _tokenId);\r\n        withdraw(_tokenId);\r\n    }\r\n\r\n\r\n}",
  "sourcePath": "C:\\Users\\root\\Desktop\\marketplace(demo)\\src\\contracts\\NFTMarketplace.sol",
  "compiler": {
    "name": "solc",
    "version": "0.8.13+commit.abaa5c0e.Emscripten.clang"
  },
  "schemaVersion": "3.4.4",
  "updatedAt": "2022-03-28T12:54:41.906Z",
  "networkType": "ethereum",
  "devdoc": {
    "kind": "dev",
    "methods": {
      "getApproved(uint256)": {
        "details": "See {IERC721-getApproved}."
      },
      "isApprovedForAll(address,address)": {
        "details": "See {IERC721-isApprovedForAll}."
      },
      "safeTransferFrom(address,address,uint256,bytes)": {
        "details": "See {IERC721-safeTransferFrom}."
      },
      "setApprovalForAll(address,bool)": {
        "details": "See {IERC721-setApprovalForAll}."
      }
    },
    "version": 1
  },
  "userdoc": {
    "kind": "user",
    "methods": {},
    "version": 1
  }
}