{
  "contractName": "NFTMarketplace",
  "abi": [
    {
      "inputs": [],
      "stateMutability": "nonpayable",
      "type": "constructor"
    },
    {
      "anonymous": false,
      "inputs": [
        {
          "indexed": true,
          "internalType": "address",
          "name": "_from",
          "type": "address"
        },
        {
          "indexed": true,
          "internalType": "address",
          "name": "_to",
          "type": "address"
        },
        {
          "indexed": true,
          "internalType": "uint256",
          "name": "_tokenId",
          "type": "uint256"
        }
      ],
      "name": "Transfer",
      "type": "event"
    },
    {
      "inputs": [
        {
          "internalType": "address",
          "name": "_owner",
          "type": "address"
        }
      ],
      "name": "balanceOf",
      "outputs": [
        {
          "internalType": "uint256",
          "name": "",
          "type": "uint256"
        }
      ],
      "stateMutability": "view",
      "type": "function",
      "constant": true
    },
    {
      "inputs": [],
      "name": "name",
      "outputs": [
        {
          "internalType": "string",
          "name": "",
          "type": "string"
        }
      ],
      "stateMutability": "view",
      "type": "function",
      "constant": true
    },
    {
      "inputs": [
        {
          "internalType": "uint256",
          "name": "_tokenId",
          "type": "uint256"
        }
      ],
      "name": "ownerOf",
      "outputs": [
        {
          "internalType": "address",
          "name": "",
          "type": "address"
        }
      ],
      "stateMutability": "view",
      "type": "function",
      "constant": true
    },
    {
      "inputs": [
        {
          "internalType": "bytes4",
          "name": "interfaceID",
          "type": "bytes4"
        }
      ],
      "name": "supportsInterface",
      "outputs": [
        {
          "internalType": "bool",
          "name": "",
          "type": "bool"
        }
      ],
      "stateMutability": "view",
      "type": "function",
      "constant": true
    },
    {
      "inputs": [],
      "name": "symbol",
      "outputs": [
        {
          "internalType": "string",
          "name": "",
          "type": "string"
        }
      ],
      "stateMutability": "view",
      "type": "function",
      "constant": true
    },
    {
      "inputs": [
        {
          "internalType": "uint256",
          "name": "_index",
          "type": "uint256"
        }
      ],
      "name": "tokenByIndex",
      "outputs": [
        {
          "internalType": "uint256",
          "name": "",
          "type": "uint256"
        }
      ],
      "stateMutability": "view",
      "type": "function",
      "constant": true
    },
    {
      "inputs": [
        {
          "internalType": "address",
          "name": "owner",
          "type": "address"
        },
        {
          "internalType": "uint256",
          "name": "index",
          "type": "uint256"
        }
      ],
      "name": "tokenOfOwnerByIndex",
      "outputs": [
        {
          "internalType": "uint256",
          "name": "",
          "type": "uint256"
        }
      ],
      "stateMutability": "view",
      "type": "function",
      "constant": true
    },
    {
      "inputs": [
        {
          "internalType": "uint256",
          "name": "",
          "type": "uint256"
        }
      ],
      "name": "tokens",
      "outputs": [
        {
          "internalType": "string",
          "name": "",
          "type": "string"
        }
      ],
      "stateMutability": "view",
      "type": "function",
      "constant": true
    },
    {
      "inputs": [],
      "name": "totalSupply",
      "outputs": [
        {
          "internalType": "uint256",
          "name": "",
          "type": "uint256"
        }
      ],
      "stateMutability": "view",
      "type": "function",
      "constant": true
    },
    {
      "inputs": [
        {
          "internalType": "address",
          "name": "_from",
          "type": "address"
        },
        {
          "internalType": "address",
          "name": "_to",
          "type": "address"
        },
        {
          "internalType": "uint256",
          "name": "tokenId",
          "type": "uint256"
        }
      ],
      "name": "transferFrom",
      "outputs": [],
      "stateMutability": "nonpayable",
      "type": "function"
    },
    {
      "inputs": [
        {
          "internalType": "string",
          "name": "_token",
          "type": "string"
        }
      ],
      "name": "mint",
      "outputs": [],
      "stateMutability": "nonpayable",
      "type": "function"
    }
  ],
  "bytecode": "0x60806040523480156200001157600080fd5b506040518060400160405280600e81526020017f4e46544d61726b6574706c6163650000000000000000000000000000000000008152506040518060400160405280600381526020017f4e465400000000000000000000000000000000000000000000000000000000008152508181620000b17f01ffc9a7a5cef8baa21ed3c5c0d7e23accb804b619e9333b597f47a0d84076e26200022a60201b60201c565b620001047f13b182f4c0e5b2efbac0efe6cf6d756c8b89f4b79c5707a043ed9ea740574ee97f7feaf19471f34a12a7eaf32d5f3090aa2260ea8624dc8a138e74e0bf0f623076186200022a60201b60201c565b81600190805190602001906200011c92919062000302565b5080600290805190602001906200013592919062000302565b505050620001ad7f22c82707ba960a14c7592ffb6b8cfaa073fed0048a84cc7fa41f6b5bd8e7f2e47f3a6eb71757dfc6e784c1459d26270140c2c147d95ca985c80026fc5301c3eca17f8a7e378434598edc36d108689a030cbc9d7d465de4f74c71bae1028eed6a881b18186200022a60201b60201c565b620002227f8230223f691b981717299fae9549350a0d894555723531f02108b1f522c1a7977f6da5e1284143cdd2d15038a59bde3be031250f00291d64494c12d967b3a4e0c37fc53637662700e6c65104059db8bba34439e0c32483ab7c34e3ccae52c739549518186200022a60201b60201c565b50506200049a565b63ffffffff60e01b817bffffffffffffffffffffffffffffffffffffffffffffffffffffffff1916141562000296576040517f08c379a00000000000000000000000000000000000000000000000000000000081526004016200028d9062000413565b60405180910390fd5b6001600080837bffffffffffffffffffffffffffffffffffffffffffffffffffffffff19167bffffffffffffffffffffffffffffffffffffffffffffffffffffffff1916815260200190815260200160002060006101000a81548160ff02191690831515021790555050565b828054620003109062000464565b90600052602060002090601f01602090048101928262000334576000855562000380565b82601f106200034f57805160ff191683800117855562000380565b8280016001018555821562000380579182015b828111156200037f57825182559160200191906001019062000362565b5b5090506200038f919062000393565b5090565b5b80821115620003ae57600081600090555060010162000394565b5090565b600082825260208201905092915050565b7f496e76616c696420696e74657266616365207265717565737400000000000000600082015250565b6000620003fb601983620003b2565b91506200040882620003c3565b602082019050919050565b600060208201905081810360008301526200042e81620003ec565b9050919050565b7f4e487b7100000000000000000000000000000000000000000000000000000000600052602260045260246000fd5b600060028204905060018216806200047d57607f821691505b6020821081141562000494576200049362000435565b5b50919050565b61186c80620004aa6000396000f3fe608060405234801561001057600080fd5b50600436106100a95760003560e01c80634f64b2be116100715780634f64b2be146101665780634f6ccce7146101965780636352211e146101c657806370a08231146101f657806395d89b4114610226578063d85d3d2714610244576100a9565b806301ffc9a7146100ae57806306fdde03146100de57806318160ddd146100fc57806323b872dd1461011a5780632f745c5914610136575b600080fd5b6100c860048036038101906100c39190610f7e565b610260565b6040516100d59190610fc6565b60405180910390f35b6100e66102c7565b6040516100f3919061107a565b60405180910390f35b610104610359565b60405161011191906110b5565b60405180910390f35b610134600480360381019061012f919061115a565b610366565b005b610150600480360381019061014b91906111ad565b610376565b60405161015d91906110b5565b60405180910390f35b610180600480360381019061017b91906111ed565b610495565b60405161018d919061107a565b60405180910390f35b6101b060048036038101906101ab91906111ed565b610541565b6040516101bd91906110b5565b60405180910390f35b6101e060048036038101906101db91906111ed565b6105b2565b6040516101ed9190611229565b60405180910390f35b610210600480360381019061020b9190611244565b610664565b60405161021d91906110b5565b60405180910390f35b61022e61071c565b60405161023b919061107a565b60405180910390f35b61025e600480360381019061025991906113a6565b6107ae565b005b6000806000837bffffffffffffffffffffffffffffffffffffffffffffffffffffffff19167bffffffffffffffffffffffffffffffffffffffffffffffffffffffff1916815260200190815260200160002060009054906101000a900460ff169050919050565b6060600180546102d69061141e565b80601f01602080910402602001604051908101604052809291908181526020018280546103029061141e565b801561034f5780601f106103245761010080835404028352916020019161034f565b820191906000526020600020905b81548152906001019060200180831161033257829003601f168201915b5050505050905090565b6000600580549050905090565b6103718383836108b1565b505050565b60008073ffffffffffffffffffffffffffffffffffffffff168373ffffffffffffffffffffffffffffffffffffffff1614156103e7576040517f08c379a00000000000000000000000000000000000000000000000000000000081526004016103de9061149c565b60405180910390fd5b6103f083610664565b8210610431576040517f08c379a00000000000000000000000000000000000000000000000000000000081526004016104289061152e565b60405180910390fd5b600860008473ffffffffffffffffffffffffffffffffffffffff1673ffffffffffffffffffffffffffffffffffffffff16815260200190815260200160002082815481106104825761048161154e565b5b9060005260206000200154905092915050565b600a81815481106104a557600080fd5b9060005260206000200160009150905080546104c09061141e565b80601f01602080910402602001604051908101604052809291908181526020018280546104ec9061141e565b80156105395780601f1061050e57610100808354040283529160200191610539565b820191906000526020600020905b81548152906001019060200180831161051c57829003601f168201915b505050505081565b600061054b610359565b821061058c576040517f08c379a0000000000000000000000000000000000000000000000000000000008152600401610583906115c9565b60405180910390fd5b600582815481106105a05761059f61154e565b5b90600052602060002001549050919050565b6000806003600084815260200190815260200160002060009054906101000a900473ffffffffffffffffffffffffffffffffffffffff169050600073ffffffffffffffffffffffffffffffffffffffff168173ffffffffffffffffffffffffffffffffffffffff16141561065b576040517f08c379a00000000000000000000000000000000000000000000000000000000081526004016106529061149c565b60405180910390fd5b80915050919050565b60008073ffffffffffffffffffffffffffffffffffffffff168273ffffffffffffffffffffffffffffffffffffffff1614156106d5576040517f08c379a00000000000000000000000000000000000000000000000000000000081526004016106cc9061149c565b60405180910390fd5b600460008373ffffffffffffffffffffffffffffffffffffffff1673ffffffffffffffffffffffffffffffffffffffff168152602001908152602001600020549050919050565b60606002805461072b9061141e565b80601f01602080910402602001604051908101604052809291908181526020018280546107579061141e565b80156107a45780601f10610779576101008083540402835291602001916107a4565b820191906000526020600020905b81548152906001019060200180831161078757829003601f168201915b5050505050905090565b600b816040516107be9190611625565b908152602001604051809103902060009054906101000a900460ff161561081a576040517f08c379a0000000000000000000000000000000000000000000000000000000008152600401610811906116ae565b60405180910390fd5b600a81908060018154018082558091505060019003906000526020600020016000909190919091509080519060200190610855929190610e6f565b5060006001600a8054905061086a91906116fd565b905061087633826108cb565b6001600b836040516108889190611625565b908152602001604051809103902060006101000a81548160ff0219169083151502179055505050565b6108bc8383836108ec565b6108c68183610b67565b505050565b6108d58282610c2b565b6108de81610db4565b6108e88183610b67565b5050565b8273ffffffffffffffffffffffffffffffffffffffff1661090c826105b2565b73ffffffffffffffffffffffffffffffffffffffff1614610962576040517f08c379a0000000000000000000000000000000000000000000000000000000008152600401610959906117a3565b60405180910390fd5b600073ffffffffffffffffffffffffffffffffffffffff168273ffffffffffffffffffffffffffffffffffffffff16141580156109cc5750600073ffffffffffffffffffffffffffffffffffffffff168373ffffffffffffffffffffffffffffffffffffffff1614155b610a0b576040517f08c379a0000000000000000000000000000000000000000000000000000000008152600401610a029061149c565b60405180910390fd5b816003600083815260200190815260200160002060006101000a81548173ffffffffffffffffffffffffffffffffffffffff021916908373ffffffffffffffffffffffffffffffffffffffff160217905550600460008473ffffffffffffffffffffffffffffffffffffffff1673ffffffffffffffffffffffffffffffffffffffff1681526020019081526020016000206000815480929190610aad906117c3565b9190505550600460008373ffffffffffffffffffffffffffffffffffffffff1673ffffffffffffffffffffffffffffffffffffffff1681526020019081526020016000206000815480929190610b02906117ed565b9190505550808273ffffffffffffffffffffffffffffffffffffffff168473ffffffffffffffffffffffffffffffffffffffff167fddf252ad1be2c89b69c2b068fc378daa952ba7f163c4a11628f55a4df523b3ef60405160405180910390a4505050565b600860008273ffffffffffffffffffffffffffffffffffffffff1673ffffffffffffffffffffffffffffffffffffffff168152602001908152602001600020829080600181540180825580915050600190039060005260206000200160009091909190915055600860008273ffffffffffffffffffffffffffffffffffffffff1673ffffffffffffffffffffffffffffffffffffffff1681526020019081526020016000208054905060096000848152602001908152602001600020819055505050565b600073ffffffffffffffffffffffffffffffffffffffff168273ffffffffffffffffffffffffffffffffffffffff1611610c9a576040517f08c379a0000000000000000000000000000000000000000000000000000000008152600401610c919061149c565b60405180910390fd5b610ca381610dfd565b15610cad57600080fd5b816003600083815260200190815260200160002060006101000a81548173ffffffffffffffffffffffffffffffffffffffff021916908373ffffffffffffffffffffffffffffffffffffffff160217905550600460008373ffffffffffffffffffffffffffffffffffffffff1673ffffffffffffffffffffffffffffffffffffffff1681526020019081526020016000206000815480929190610d4f906117ed565b9190505550808273ffffffffffffffffffffffffffffffffffffffff16600073ffffffffffffffffffffffffffffffffffffffff167fddf252ad1be2c89b69c2b068fc378daa952ba7f163c4a11628f55a4df523b3ef60405160405180910390a45050565b6005805490506007600083815260200190815260200160002081905550600581908060018154018082558091505060019003906000526020600020016000909190919091505550565b6000806003600084815260200190815260200160002060009054906101000a900473ffffffffffffffffffffffffffffffffffffffff169050600073ffffffffffffffffffffffffffffffffffffffff168173ffffffffffffffffffffffffffffffffffffffff161415915050919050565b828054610e7b9061141e565b90600052602060002090601f016020900481019282610e9d5760008555610ee4565b82601f10610eb657805160ff1916838001178555610ee4565b82800160010185558215610ee4579182015b82811115610ee3578251825591602001919060010190610ec8565b5b509050610ef19190610ef5565b5090565b5b80821115610f0e576000816000905550600101610ef6565b5090565b6000604051905090565b600080fd5b600080fd5b60007fffffffff0000000000000000000000000000000000000000000000000000000082169050919050565b610f5b81610f26565b8114610f6657600080fd5b50565b600081359050610f7881610f52565b92915050565b600060208284031215610f9457610f93610f1c565b5b6000610fa284828501610f69565b91505092915050565b60008115159050919050565b610fc081610fab565b82525050565b6000602082019050610fdb6000830184610fb7565b92915050565b600081519050919050565b600082825260208201905092915050565b60005b8381101561101b578082015181840152602081019050611000565b8381111561102a576000848401525b50505050565b6000601f19601f8301169050919050565b600061104c82610fe1565b6110568185610fec565b9350611066818560208601610ffd565b61106f81611030565b840191505092915050565b600060208201905081810360008301526110948184611041565b905092915050565b6000819050919050565b6110af8161109c565b82525050565b60006020820190506110ca60008301846110a6565b92915050565b600073ffffffffffffffffffffffffffffffffffffffff82169050919050565b60006110fb826110d0565b9050919050565b61110b816110f0565b811461111657600080fd5b50565b60008135905061112881611102565b92915050565b6111378161109c565b811461114257600080fd5b50565b6000813590506111548161112e565b92915050565b60008060006060848603121561117357611172610f1c565b5b600061118186828701611119565b935050602061119286828701611119565b92505060406111a386828701611145565b9150509250925092565b600080604083850312156111c4576111c3610f1c565b5b60006111d285828601611119565b92505060206111e385828601611145565b9150509250929050565b60006020828403121561120357611202610f1c565b5b600061121184828501611145565b91505092915050565b611223816110f0565b82525050565b600060208201905061123e600083018461121a565b92915050565b60006020828403121561125a57611259610f1c565b5b600061126884828501611119565b91505092915050565b600080fd5b600080fd5b7f4e487b7100000000000000000000000000000000000000000000000000000000600052604160045260246000fd5b6112b382611030565b810181811067ffffffffffffffff821117156112d2576112d161127b565b5b80604052505050565b60006112e5610f12565b90506112f182826112aa565b919050565b600067ffffffffffffffff8211156113115761131061127b565b5b61131a82611030565b9050602081019050919050565b82818337600083830152505050565b6000611349611344846112f6565b6112db565b90508281526020810184848401111561136557611364611276565b5b611370848285611327565b509392505050565b600082601f83011261138d5761138c611271565b5b813561139d848260208601611336565b91505092915050565b6000602082840312156113bc576113bb610f1c565b5b600082013567ffffffffffffffff8111156113da576113d9610f21565b5b6113e684828501611378565b91505092915050565b7f4e487b7100000000000000000000000000000000000000000000000000000000600052602260045260246000fd5b6000600282049050600182168061143657607f821691505b6020821081141561144a576114496113ef565b5b50919050565b7f4572726f723a20496e76616c6964206164647265737300000000000000000000600082015250565b6000611486601683610fec565b915061149182611450565b602082019050919050565b600060208201905081810360008301526114b581611479565b9050919050565b7f4572726f723a2054686174206164647265737320646f65736e7420686176652060008201527f7468697320746f6b656e00000000000000000000000000000000000000000000602082015250565b6000611518602a83610fec565b9150611523826114bc565b604082019050919050565b600060208201905081810360008301526115478161150b565b9050919050565b7f4e487b7100000000000000000000000000000000000000000000000000000000600052603260045260246000fd5b7f4572726f723a205468617420696e64657820646f65736e742065786973740000600082015250565b60006115b3601e83610fec565b91506115be8261157d565b602082019050919050565b600060208201905081810360008301526115e2816115a6565b9050919050565b600081905092915050565b60006115ff82610fe1565b61160981856115e9565b9350611619818560208601610ffd565b80840191505092915050565b600061163182846115f4565b915081905092915050565b7f4572726f723a2054686174204b727970746f4269726420616c7265616479206560008201527f7869737473210000000000000000000000000000000000000000000000000000602082015250565b6000611698602683610fec565b91506116a38261163c565b604082019050919050565b600060208201905081810360008301526116c78161168b565b9050919050565b7f4e487b7100000000000000000000000000000000000000000000000000000000600052601160045260246000fd5b60006117088261109c565b91506117138361109c565b925082821015611726576117256116ce565b5b828203905092915050565b7f4572726f723a2054686174206164647265737320646f65736e7420686176652060008201527f74686174204e4654000000000000000000000000000000000000000000000000602082015250565b600061178d602883610fec565b915061179882611731565b604082019050919050565b600060208201905081810360008301526117bc81611780565b9050919050565b60006117ce8261109c565b915060008214156117e2576117e16116ce565b5b600182039050919050565b60006117f88261109c565b91507fffffffffffffffffffffffffffffffffffffffffffffffffffffffffffffffff82141561182b5761182a6116ce565b5b60018201905091905056fea264697066735822122082997555e47eae013fa7b11ceb19743b0de3d30ea895c88042b009f208eabab164736f6c634300080b0033",
  "immutableReferences": {},
  "source": "// SPDX-License-Identifier: MIT\r\npragma solidity ^0.8.7;\r\n\r\nimport './ERC721Connector.sol';\r\n\r\ncontract NFTMarketplace is ERC721Connector {\r\n    string [] public tokens;\r\n\r\n    mapping(string => bool)  tokensExist;\r\n\r\n    constructor() ERC721Connector( 'NFTMarketplace', 'NFT'){\r\n\r\n    }\r\n\r\n    //    NFT (      )\r\n    function mint(string memory _token) public {\r\n        require(! tokensExist[_token], 'Error: That KryptoBird already exists!');\r\n\r\n     tokens.push(_token);\r\n        uint256 _id = tokens.length - 1;\r\n        _mint(msg.sender, _id);\r\n         tokensExist[_token] = true;\r\n    }\r\n   \r\n}",
  "sourcePath": "C:\\Users\\root\\Desktop\\marketplace(demo)\\src\\contracts\\NFTMarketplace.sol",
  "compiler": {
    "name": "solc",
    "version": "0.8.11+commit.d7f03943.Emscripten.clang"
  },
  "schemaVersion": "3.4.4",
  "updatedAt": "2022-02-05T18:36:32.916Z",
  "networkType": "ethereum",
  "devdoc": {
    "kind": "dev",
    "methods": {},
    "version": 1
  },
  "userdoc": {
    "kind": "user",
    "methods": {},
    "version": 1
  }
}